:0400000054EF00F0C9
:100008003782FACF09F0FBCF0AF0E9CF0BF0EACF3D
:100018000CF0E1CF0DF0E2CF0EF0D9CF0FF0DACF30
:1000280010F0F3CF11F0F4CF12F0F6CF13F0F7CFB2
:1000380014F0F8CF15F0F5CF16F037C017F038C028
:1000480018F039C019F03AC01AF0F2B8F2A202D08A
:10005800B0EC03F01AC03AF019C039F018C038F003
:1000680017C037F016C0F5FF15C0F8FF14C0F7FF2A
:1000780013C0F6FF12C0F4FF11C0F3FF10C0DAFF7F
:100088000FC0D9FF0EC0E2FF0DC0E1FF0CC0EAFFB0
:100098000BC0E9FF0AC0FBFF09C0FAFF3792110045
:0400A80073EF04F0FE
:100600000012001B0009000D000100040007000F8C
:100610000000800030D01DB002D08B9801D08B88B4
:1006200012001DB002D08C9A01D08C8A12001DB02D
:1006300002D08A9201D08A8212001DB002D08C941E
:1006400001D08C8412001DB002D0899001D0898025
:1006500012001DB002D0899601D0898612001DB00B
:1006600002D08D9001D08D8012001DB002D08B92EF
:1006700001D08B8212001BC01FF01CC020F0205044
:10068000000AD8A412001F50000AD8B4C4D7010A27
:10069000D8B4C7D7030AD8B4CAD7010AD8B4CDD7BB
:1006A000070AD8B4D0D7010AD8B4D3D7030AD8B42C
:1006B000D6D7010AD8A41200D8D730D003B002D0C0
:1006C0008B9A01D08B8A120003B002D08C9C01D08F
:1006D0008C8C120003B002D08A9401D08A8412005C
:1006E00003B002D08A9801D08A88120003B002D0E9
:1006F000899401D08984120003B002D0899801D076
:100700008988120003B002D08D9201D08D82120030
:1007100003B002D08B9401D08B84120001C005F08D
:1007200002C006F00650000AD8A412000550000AC4
:10073000D8B4C4D7010AD8B4C7D7030AD8B4CAD723
:10074000010AD8B4CDD7070AD8B4D0D7010AD8B493
:10075000D3D7030AD8B4D6D7010AD8A41200D8D761
:10076000000E086E000E076E08BE03D008503DE173
:1007700038D007C001F008C002F0000E046E010E70
:10078000036E5DEC03F0420EE82EFED700D0D89049
:100790000734F66E0834F76E010EF626060EF722C1
:1007A0000800F5504BEC04F0D8900734D96E0834AB
:1007B000DA6E250ED926000EDA2201C0DEFF02C055
:1007C000DDFF07C001F008C002F0000E046E000E4D
:1007D000036E5DEC03F0074A082A08BECAD708502A
:1007E00004E1080E075CD8A0C4D7F29263EC04F0D1
:1007F0001200000E246E000E236E24BE06D024507C
:1008000027E1080E235CD8B0120023C01BF024C0DF
:100810001CF0110EF66E060EF76ED8902334D96ECA
:100820002434DA6E250ED926000EDA220900F5509E
:10083000DE5C0900F550DE58D8B002D0010E01D0C0
:10084000000E1D6E1E6A0AEC03F0234A242AD5D737
:100850001200000E8D6E000E8C6E000E896E000E62
:100860008A6E000E8B6E040E966EE20E926EE90E8C
:10087000936EC90E946E8B0E956EFC0E0F013A6F3F
:100880003E0E396FE40E3B6F070E3C6F2F0E386F34
:100890006168F19E1200056E05C003F00346034631
:1008A000C2500318830B0318C26EC280C282C2B248
:1008B000FED7C450046E036AC3500324016E000EB9
:1008C0000420026E120035503610D8B4120001D840
:1008D00012000500FA6E3550FD6E3650FE6EF8506F
:1008E000FF6EFA50120000EE25F0100EEE6AE806D8
:1008F000FDE137903792000EF86E00018DEF04F0A5
:10090000C0EC04F029EC04F0B4EC04F0ADEC04F01D
:10091000A3EC04F098EC04F0120080EC04F0F28EEA
:10092000F28C29EC04F098EC04F0F9EC03F0FDD71C
:10093000010EC26E000EC16E000EC06E000EC36EC0
:10094000000EC46E1200F292F18C840E1B6E090E22
:100950001C6EBBEC04F0F2881200000E6D6E240ECB
:100960006C6E000E696E1200700ED36E040ED26EA5
:10097000000E9B6E12001BC035F01CC036F012003A
:06098000D09E12001200DF
:020000040020DA
:08000000FFFFFFFFFFFFFFFF00
:020000040030CA
:0E000000FF281F3CFFBF85FF0FC00FE00F4021
:00000001FF
