:0400000054EF00F0C9
:100008003A82FACF09F0FBCF0AF0E9CF0BF0EACF3A
:100018000CF0E1CF0DF0E2CF0EF0D9CF0FF0DACF30
:1000280010F0F3CF11F0F4CF12F0F6CF13F0F7CFB2
:1000380014F0F8CF15F0F5CF16F03AC017F03BC022
:1000480018F03CC019F03DC01AF0F2B8F2A202D084
:1000580008EC04F01AC03DF019C03CF018C03BF0A1
:1000680017C03AF016C0F5FF15C0F8FF14C0F7FF27
:1000780013C0F6FF12C0F4FF11C0F3FF10C0DAFF7F
:100088000FC0D9FF0EC0E2FF0DC0E1FF0CC0EAFFB0
:100098000BC0E9FF0AC0FBFF09C0FAFF3A92110042
:0400A800EFEF04F082
:100600000012001B0009000D000100040007000F8C
:100610000000800088D01DB002D08B9801D08B885C
:100620001D501E10D8B404D036500109366E120089
:100630003650FE0B366E12001DB002D08C9A01D0DF
:100640008C8A1D501E10D8B404D036500209366E64
:1006500012003650FD0B366E12001DB002D08A9289
:1006600001D08A821D501E10D8B404D0365004091F
:10067000366E12003650FB0B366E12001DB002D0E3
:100680008C9401D08C841D501E10D8B404D03650E8
:100690000809366E12003650F70B366E12001DB088
:1006A00002D0899001D089801D501E10D8B404D08A
:1006B00036501009366E12003650EF0B366E1200AF
:1006C0001DB002D0899601D089861D501E10D8B465
:1006D00004D036502009366E12003650DF0B366ECD
:1006E00012001DB002D08D9001D08D801D501E10C3
:1006F000D8B404D036504009366E12003650BF0BC5
:10070000366E12001DB002D08B9201D08B821D502C
:100710001E10D8B404D036508009366E1200365000
:100720007F0B366E12001BC01FF01CC020F0205043
:10073000000AD8A412001F50000AD8B46CD7010ACE
:10074000D8B47AD7030AD8B488D7010AD8B496D7D0
:10075000070AD8B4A4D7010AD8B4B2D7030AD8B4C8
:10076000C0D7010AD8A41200CDD730D003B002D030
:100770008B9A01D08B8A120003B002D08C9C01D0DE
:100780008C8C120003B002D08A9401D08A841200AB
:1007900003B002D08A9801D08A88120003B002D038
:1007A000899401D08984120003B002D0899801D0C5
:1007B0008988120003B002D08D9201D08D82120080
:1007C00003B002D08B9401D08B84120001C005F0DD
:1007D00002C006F00650000AD8A412000550000A14
:1007E000D8B4C4D7010AD8B4C7D7030AD8B4CAD773
:1007F000010AD8B4CDD7070AD8B4D0D7010AD8B4E3
:10080000D3D7030AD8B4D6D7010AD8A41200D8D7B0
:10081000000E086E000E076E08BE06D0085039E1C3
:10082000080E075CD8B035D007C001F008C002F050
:10083000000E046E010E036EB5EC03F0420EE82EBE
:10084000FED700D0D8900734F66E0834F76E010E4C
:10085000F626060EF7220800F550A3EC04F0D89017
:100860000734D96E0834DA6E260ED926000EDA2245
:1008700001C0DEFF02C0DDFF07C001F008C002F0CA
:10088000000E046E000E036EB5EC03F0074A082A52
:10089000C3D7010E376EF292D0EC04F01200000EB6
:1008A000366E000E246E000E236E24BE06D0245039
:1008B00027E1080E235CD8B0120023C01BF024C02F
:1008C0001CF0110EF66E060EF76ED8902334D96E1A
:1008D0002434DA6E260ED926000EDA220900F550ED
:1008E000DE5C0900F550DE58D8B002D0010E01D010
:1008F000000E1D6E1E6A0AEC03F0234A242AD5D787
:100900001200000E8D6E000E8C6E000E896E000EB1
:100910008A6E000E8B6E040E966EE20E926EE90EDB
:10092000936EC90E946E8B0E956EFC0E0F013A6F8E
:100930003E0E396FE40E3B6F070E3C6F2F0E386F83
:100940006168F19E1200056E05C003F00346034680
:10095000C2500318830B0318C26EC280C282C2B297
:10096000FED7C450046E036AC3500324016E000E08
:100970000420026E1200E0EC04F0F28EF28C81ECA6
:1009800004F009EC05F04FEC04F0000E376E04D0D3
:100990003650FCEC04F0256E3750D8A4F4D7F8D7C5
:1009A00038503910D8B4120001D812000500FA6E80
:1009B0003850FD6E3950FE6EF850FF6EFA5012003E
:1009C00039EC05F081EC04F02DEC05F026EC05F097
:1009D00014EC05F01EEC05F009EC05F0120000EE39
:1009E00026F0120EEE6AE806FDE13A903A92000E09
:1009F000F86E0001BBEF04F01C6E6FCF1BF06C9E15
:100A00001CC06FFF6DB003D03750D8B4FBD76F5008
:100A10001200010EC26E000EC16E0D0EC06E000EF1
:100A2000C36E000EC46E1200F292F18C760E1B6E35
:100A30000A0E1C6E34EC05F0F2881200000E0F0155
:100A4000546F000E556F000E566F1200000E6D6E43
:100A5000240E6C6E000E696E1200700ED36E040EC2
:100A6000D26E000E9B6E12001BC038F01CC039F015
:080A70001200D09E12001200DA
:020000040020DA
:08000000FFFFFFFFFFFFFFFF00
:020000040030CA
:0E000000FF281F3CFFBF85FF0FC00FE00F4021
:00000001FF
