:0400000054EF00F0C9
:100008003282FACF01F0FBCF02F0E9CF03F0EACF5A
:1000180004F0E1CF05F0E2CF06F0D9CF07F0DACF50
:1000280008F0F3CF09F0F4CF0AF0F6CF0BF0F7CFD2
:100038000CF0F8CF0DF0F5CF0EF032C00FF033C052
:1000480010F034C011F035C012F0F2B8F2A202D0AC
:10005800BAEC04F012C035F011C034F010C033F01F
:100068000FC032F00EC0F5FF0DC0F8FF0CC0F7FF4F
:100078000BC0F6FF0AC0F4FF09C0F3FF08C0DAFF9F
:1000880007C0D9FF06C0E2FF05C0E1FF04C0EAFFD0
:1000980003C0E9FF02C0FBFF01C0FAFF3292110062
:0400A80078EF04F0F9
:100600000012001B0009000D000100040007000F8C
:100610000000800030D015B002D08B9A01D08B8AB8
:10062000120015B002D08C9C01D08C8C120015B039
:1006300002D08A9401D08A84120015B002D08A9820
:1006400001D08A88120015B002D0899401D0898423
:10065000120015B002D0899801D08988120015B017
:1006600002D08D9201D08D82120015B002D08B94F1
:1006700001D08B84120013C017F014C018F018506A
:10068000000AD8A412001750000AD8B4C4D7010A2F
:10069000D8B4C7D7030AD8B4CAD7010AD8B4CDD7BB
:1006A000070AD8B4D0D7010AD8B4D3D7030AD8B42C
:1006B000D6D7010AD8A41200D8D730D015B002D0AE
:1006C0008B9801D08B88120015B002D08C9A01D083
:1006D0008C8A120015B002D08A9201D08A82120050
:1006E00015B002D08C9401D08C84120015B002D0C9
:1006F000899001D08980120015B002D0899601D06E
:100700008986120015B002D08D9001D08D80120024
:1007100015B002D08B9201D08B82120013C017F05B
:1007200014C018F01850000AD8A412001750000A7C
:10073000D8B4C4D7010AD8B4C7D7030AD8B4CAD723
:10074000010AD8B4CDD7070AD8B4D0D7010AD8B493
:10075000D3D7030AD8B4D6D7010AD8A41200D8D761
:1007600085EC04F02EEC04F092EC04F0000E1F6E09
:10077000000E1E6E1FBE06D01F503DE1080E1E5C0F
:10078000D8B039D01EC013F01FC014F0000E166E82
:10079000010E156E0AEC03F00B0E1D6E620EE82EB4
:1007A000FED71D2EFCD700D0D8901E34F66E1F3415
:1007B000F76E010EF626060EF7220800F55050ECF3
:1007C00004F0D8901E34D96E1F34DA6E200ED9266C
:1007D000000EDA2213C0DEFF14C0DDFF1EC013F0CE
:1007E0001FC014F0000E166E000E156E0AEC03F01A
:1007F0001E4A1F2ABFD7FEEC03F0B8D7000E1C6EAE
:10080000000E1B6E1CBE06D01C5027E1080E1B5CA0
:10081000D8B012001BC013F01CC014F0110EF66EFD
:10082000060EF76ED8901B34D96E1C34DA6E200E8B
:10083000D926000EDA220900F550DE5C0900F550D9
:10084000DE58D8B002D0010E01D0000E156E166A27
:100850005DEC03F01B4A1C2AD5D71200000E8D6EEA
:10086000000E8C6E000E896E000E8A6E000E8B6E6E
:10087000040E966EE20E926EE90E936EC90E946EA1
:100880008B0E956EFC0E0F013A6F3E0E396FE40E23
:100890003B6F070E3C6F2F0E386F6168F19E1200A0
:1008A000176E17C015F015461546C2501518830B64
:1008B0001518C26EC280C282C2B2FED7C450166E74
:1008C000156AC3501524136E000E1620146E120004
:1008D00030503110D8B4120001D812000500FA6E61
:1008E0003050FD6E3150FE6EF850FF6EFA5012001F
:1008F00000EE20F0100EEE6AE806FDE13290329232
:10090000000EF86E0001B0EF03F0BEEC04F02EEC28
:1009100004F0AEEC04F0A7EC04F09DEC04F092ECD3
:1009200004F01200010EC26E000EC16E000EC06E09
:10093000000EC36E000EC46E1200F292F18C800E97
:10094000136E090E146EB5EC04F0F2881200000E5E
:100950006D6E240E6C6E000E696E1200700ED36EFA
:10096000040ED26E000E9B6E120013C030F014C045
:1009700031F01200F29268EC04F01200D09E1200E6
:02098000120063
:020000040020DA
:08000000FFFFFFFFFFFFFFFF00
:020000040030CA
:0E000000FF281F3CFFBF85FF0FC00FE00F4021
:00000001FF
