:0400000054EF00F0C9
:100008003C82FACF09F0FBCF0AF0E9CF0BF0EACF38
:100018000CF0E1CF0DF0E2CF0EF0D9CF0FF0DACF30
:1000280010F0F3CF11F0F4CF12F0F6CF13F0F7CFB2
:1000380014F0F8CF15F0F5CF16F03CC017F03DC01E
:1000480018F03EC019F03FC01AF0F2B8F2A202D080
:10005800B0EC03F01AC03FF019C03EF018C03DF0F4
:1000680017C03CF016C0F5FF15C0F8FF14C0F7FF25
:1000780013C0F6FF12C0F4FF11C0F3FF10C0DAFF7F
:100088000FC0D9FF0EC0E2FF0DC0E1FF0CC0EAFFB0
:100098000BC0E9FF0AC0FBFF09C0FAFF3C92110040
:0400A8009CEF04F0D5
:100600000012001B0009000D000100040007000F8C
:100610000000800030D01DB002D08B9801D08B88B4
:1006200012001DB002D08C9A01D08C8A12001DB02D
:1006300002D08A9201D08A8212001DB002D08C941E
:1006400001D08C8412001DB002D0899001D0898025
:1006500012001DB002D0899601D0898612001DB00B
:1006600002D08D9001D08D8012001DB002D08B92EF
:1006700001D08B8212001BC01FF01CC020F0205044
:10068000000AD8A412001F50000AD8B4C4D7010A27
:10069000D8B4C7D7030AD8B4CAD7010AD8B4CDD7BB
:1006A000070AD8B4D0D7010AD8B4D3D7030AD8B42C
:1006B000D6D7010AD8A41200D8D730D003B002D0C0
:1006C0008B9A01D08B8A120003B002D08C9C01D08F
:1006D0008C8C120003B002D08A9401D08A8412005C
:1006E00003B002D08A9801D08A88120003B002D0E9
:1006F000899401D08984120003B002D0899801D076
:100700008988120003B002D08D9201D08D82120030
:1007100003B002D08B9401D08B84120001C005F08D
:1007200002C006F00650000AD8A412000550000AC4
:10073000D8B4C4D7010AD8B4C7D7030AD8B4CAD723
:10074000010AD8B4CDD7070AD8B4D0D7010AD8B493
:10075000D3D7030AD8B4D6D7010AD8A41200D8D761
:10076000000E086E000E076E08BE06D0085039E174
:10077000080E075CD8B035D007C001F008C002F001
:10078000000E046E010E036E5DEC03F0420EE82EC7
:10079000FED700D0D8900734F66E0834F76E010EFD
:1007A000F626060EF7220800F55074EC04F0D890F7
:1007B0000734D96E0834DA6E290ED926000EDA22F3
:1007C00001C0DEFF02C0DDFF07C001F008C002F07B
:1007D000000E046E000E036E5DEC03F0074A082A5B
:1007E000C3D7010E396EF2928CEC04F01200000EA9
:1007F000246E000E236E24BE06D0245027E1080E7E
:10080000235CD8B0120023C01BF024C01CF0110ED2
:10081000F66E060EF76ED8902334D96E2434DA6E55
:10082000290ED926000EDA220900F550DE5C0900F7
:10083000F550DE58D8B002D0010E01D0000E1D6E6A
:100840001E6A0AEC03F0234A242AD5D71200A9EC29
:1008500004F0F28EF28C52EC04F0C3EC04F0F7ECEE
:1008600003F0000E396E1AD0E30EB6EC04F0286ED9
:10087000080E286013D02850020D290EF324D96EDB
:10088000000EF420DA6EDECF25F0DDCF26F026C094
:1008900025F0266A2550B6EC04F0276E3950D8A40E
:1008A000DED7E2D7000E8D6E000E8C6E000E896EC4
:1008B000000E8A6E000E8B6E040E966EE20E926E25
:1008C000E90E936EC90E946E8B0E956EFC0E0F01A1
:1008D0003A6F3E0E396FE40E3B6F070E3C6F2F0EE2
:1008E000386F6168F19E1200056E05C003F0034683
:1008F0000346C2500318830B0318C26EC280C28223
:10090000C2B2FED7C450046E036AC3500324016E02
:10091000000E0420026E12003A503B10D8B41200B0
:1009200001D812000500FA6E3A50FD6E3B50FE6E83
:10093000F850FF6EFA50120000EE29F0110EEE6A28
:10094000E806FDE13C903C92000EF86E000127EFB6
:1009500004F0EBEC04F052EC04F0DFEC04F0D8EC23
:1009600004F0CEEC04F0C3EC04F012001C6E6FCF68
:100970001BF06C9E1CC06FFF6DB003D03950D8B413
:10098000FBD76F501200010EC26E000EC16E000E3A
:10099000C06E000EC36E000EC46E1200F292F18C97
:1009A000DA0E1B6E090E1C6EE6EC04F0F2881200E3
:1009B000000E6D6E240E6C6E000E696E1200700ECD
:1009C000D36E040ED26E000E9B6E12001BC03AF066
:0C09D0001CC03BF01200D09E1200120070
:020000040020DA
:08000000FFFFFFFFFFFFFFFF00
:020000040030CA
:0E000000FF281F3CFFBF85FF0FC00FE00F4021
:00000001FF
